{
  "contractName": "DAO",
  "abi": [
    {
      "inputs": [
        {
          "internalType": "address",
          "name": "_token",
          "type": "address"
        }
      ],
      "stateMutability": "nonpayable",
      "type": "constructor"
    },
    {
      "inputs": [
        {
          "internalType": "bytes32",
          "name": "",
          "type": "bytes32"
        }
      ],
      "name": "proposals",
      "outputs": [
        {
          "internalType": "address",
          "name": "author",
          "type": "address"
        },
        {
          "internalType": "bytes32",
          "name": "hash",
          "type": "bytes32"
        },
        {
          "internalType": "uint256",
          "name": "createdAt",
          "type": "uint256"
        },
        {
          "internalType": "uint256",
          "name": "votedYes",
          "type": "uint256"
        },
        {
          "internalType": "uint256",
          "name": "votedNo",
          "type": "uint256"
        },
        {
          "internalType": "enum DAO.Status",
          "name": "status",
          "type": "uint8"
        }
      ],
      "stateMutability": "view",
      "type": "function"
    },
    {
      "inputs": [
        {
          "internalType": "address",
          "name": "",
          "type": "address"
        }
      ],
      "name": "shares",
      "outputs": [
        {
          "internalType": "uint256",
          "name": "",
          "type": "uint256"
        }
      ],
      "stateMutability": "view",
      "type": "function"
    },
    {
      "inputs": [],
      "name": "token",
      "outputs": [
        {
          "internalType": "contract IERC20",
          "name": "",
          "type": "address"
        }
      ],
      "stateMutability": "view",
      "type": "function"
    },
    {
      "inputs": [],
      "name": "totalShares",
      "outputs": [
        {
          "internalType": "uint256",
          "name": "",
          "type": "uint256"
        }
      ],
      "stateMutability": "view",
      "type": "function"
    },
    {
      "inputs": [
        {
          "internalType": "address",
          "name": "",
          "type": "address"
        },
        {
          "internalType": "bytes32",
          "name": "",
          "type": "bytes32"
        }
      ],
      "name": "votes",
      "outputs": [
        {
          "internalType": "bool",
          "name": "",
          "type": "bool"
        }
      ],
      "stateMutability": "view",
      "type": "function"
    },
    {
      "inputs": [
        {
          "internalType": "uint256",
          "name": "amount",
          "type": "uint256"
        }
      ],
      "name": "deposit",
      "outputs": [],
      "stateMutability": "nonpayable",
      "type": "function"
    },
    {
      "inputs": [
        {
          "internalType": "uint256",
          "name": "amount",
          "type": "uint256"
        }
      ],
      "name": "withdraw",
      "outputs": [],
      "stateMutability": "nonpayable",
      "type": "function"
    },
    {
      "inputs": [
        {
          "internalType": "bytes32",
          "name": "proposalHash",
          "type": "bytes32"
        }
      ],
      "name": "createProposal",
      "outputs": [],
      "stateMutability": "nonpayable",
      "type": "function"
    },
    {
      "inputs": [
        {
          "internalType": "bytes32",
          "name": "proposalHash",
          "type": "bytes32"
        },
        {
          "internalType": "enum DAO.Side",
          "name": "side",
          "type": "uint8"
        }
      ],
      "name": "vote",
      "outputs": [],
      "stateMutability": "nonpayable",
      "type": "function"
    }
  ],
  "bytecode": "0x60806040523480156200001157600080fd5b50604051620014ed380380620014ed8339818101604052810190620000379190620000e9565b80600460006101000a81548173ffffffffffffffffffffffffffffffffffffffff021916908373ffffffffffffffffffffffffffffffffffffffff160217905550506200011b565b600080fd5b600073ffffffffffffffffffffffffffffffffffffffff82169050919050565b6000620000b18262000084565b9050919050565b620000c381620000a4565b8114620000cf57600080fd5b50565b600081519050620000e381620000b8565b92915050565b6000602082840312156200010257620001016200007f565b5b60006200011284828501620000d2565b91505092915050565b6113c2806200012b6000396000f3fe608060405234801561001057600080fd5b50600436106100935760003560e01c80633a98ef39116100665780633a98ef3914610135578063b6b55f2514610153578063c9a28cb91461016f578063ce7c2ac21461018b578063fc0c546a146101bb57610093565b80631db5ade8146100985780632542bf06146100c85780632e1a7d4d146100e457806332ed5b1214610100575b600080fd5b6100b260048036038101906100ad9190610b6f565b6101d9565b6040516100bf9190610bca565b60405180910390f35b6100e260048036038101906100dd9190610be5565b610208565b005b6100fe60048036038101906100f99190610c48565b6103fb565b005b61011a60048036038101906101159190610be5565b61059f565b60405161012c96959493929190610d19565b60405180910390f35b61013d610608565b60405161014a9190610d7a565b60405180910390f35b61016d60048036038101906101689190610c48565b61060e565b005b61018960048036038101906101849190610dba565b610732565b005b6101a560048036038101906101a09190610dfa565b610a98565b6040516101b29190610d7a565b60405180910390f35b6101c3610ab0565b6040516101d09190610e86565b60405180910390f35b60016020528160005260406000206020528060005260406000206000915091509054906101000a900460ff1681565b683635c9adc5dea00000600260003373ffffffffffffffffffffffffffffffffffffffff1673ffffffffffffffffffffffffffffffffffffffff1681526020019081526020016000205411610292576040517f08c379a000000000000000000000000000000000000000000000000000000000815260040161028990610f24565b60405180910390fd5b6000801b60008083815260200190815260200160002060010154146102ec576040517f08c379a00000000000000000000000000000000000000000000000000000000081526004016102e390610f90565b60405180910390fd5b6040518060c001604052803373ffffffffffffffffffffffffffffffffffffffff16815260200182815260200142815260200160008152602001600081526020016000600281111561034157610340610ca2565b5b81525060008083815260200190815260200160002060008201518160000160006101000a81548173ffffffffffffffffffffffffffffffffffffffff021916908373ffffffffffffffffffffffffffffffffffffffff1602179055506020820151816001015560408201518160020155606082015181600301556080820151816004015560a08201518160050160006101000a81548160ff021916908360028111156103f0576103ef610ca2565b5b021790555090505050565b80600260003373ffffffffffffffffffffffffffffffffffffffff1673ffffffffffffffffffffffffffffffffffffffff16815260200190815260200160002054101561047d576040517f08c379a000000000000000000000000000000000000000000000000000000000815260040161047490610ffc565b60405180910390fd5b80600260003373ffffffffffffffffffffffffffffffffffffffff1673ffffffffffffffffffffffffffffffffffffffff16815260200190815260200160002060008282546104cc919061104b565b9250508190555080600360008282546104e5919061104b565b92505081905550600460009054906101000a900473ffffffffffffffffffffffffffffffffffffffff1673ffffffffffffffffffffffffffffffffffffffff1663a9059cbb33836040518363ffffffff1660e01b815260040161054992919061107f565b602060405180830381600087803b15801561056357600080fd5b505af1158015610577573d6000803e3d6000fd5b505050506040513d601f19601f8201168201806040525081019061059b91906110d4565b5050565b60006020528060005260406000206000915090508060000160009054906101000a900473ffffffffffffffffffffffffffffffffffffffff16908060010154908060020154908060030154908060040154908060050160009054906101000a900460ff16905086565b60035481565b80600260003373ffffffffffffffffffffffffffffffffffffffff1673ffffffffffffffffffffffffffffffffffffffff168152602001908152602001600020600082825461065d9190611101565b9250508190555080600360008282546106769190611101565b92505081905550600460009054906101000a900473ffffffffffffffffffffffffffffffffffffffff1673ffffffffffffffffffffffffffffffffffffffff166323b872dd3330846040518463ffffffff1660e01b81526004016106dc93929190611157565b602060405180830381600087803b1580156106f657600080fd5b505af115801561070a573d6000803e3d6000fd5b505050506040513d601f19601f8201168201806040525081019061072e91906110d4565b5050565b6000806000848152602001908152602001600020905060001515600160003373ffffffffffffffffffffffffffffffffffffffff1673ffffffffffffffffffffffffffffffffffffffff168152602001908152602001600020600085815260200190815260200160002060009054906101000a900460ff161515146107ec576040517f08c379a00000000000000000000000000000000000000000000000000000000081526004016107e3906111da565b60405180910390fd5b6000801b600080858152602001908152602001600020600101541415610847576040517f08c379a000000000000000000000000000000000000000000000000000000000815260040161083e90611246565b60405180910390fd5b62093a80816002015461085a9190611101565b42111561089c576040517f08c379a0000000000000000000000000000000000000000000000000000000008152600401610893906112b2565b60405180910390fd5b60018060003373ffffffffffffffffffffffffffffffffffffffff1673ffffffffffffffffffffffffffffffffffffffff168152602001908152602001600020600085815260200190815260200160002060006101000a81548160ff0219169083151502179055506000600181111561091857610917610ca2565b5b82600181111561092b5761092a610ca2565b5b14156109e457600260003373ffffffffffffffffffffffffffffffffffffffff1673ffffffffffffffffffffffffffffffffffffffff168152602001908152602001600020548160030160008282546109849190611101565b925050819055506032600354606483600301546109a191906112d2565b6109ab919061135b565b11156109df5760018160050160006101000a81548160ff021916908360028111156109d9576109d8610ca2565b5b02179055505b610a93565b600260003373ffffffffffffffffffffffffffffffffffffffff1673ffffffffffffffffffffffffffffffffffffffff16815260200190815260200160002054816004016000828254610a379190611101565b92505081905550603260035460648360040154610a5491906112d2565b610a5e919061135b565b1115610a925760028160050160006101000a81548160ff02191690836002811115610a8c57610a8b610ca2565b5b02179055505b5b505050565b60026020528060005260406000206000915090505481565b600460009054906101000a900473ffffffffffffffffffffffffffffffffffffffff1681565b600080fd5b600073ffffffffffffffffffffffffffffffffffffffff82169050919050565b6000610b0682610adb565b9050919050565b610b1681610afb565b8114610b2157600080fd5b50565b600081359050610b3381610b0d565b92915050565b6000819050919050565b610b4c81610b39565b8114610b5757600080fd5b50565b600081359050610b6981610b43565b92915050565b60008060408385031215610b8657610b85610ad6565b5b6000610b9485828601610b24565b9250506020610ba585828601610b5a565b9150509250929050565b60008115159050919050565b610bc481610baf565b82525050565b6000602082019050610bdf6000830184610bbb565b92915050565b600060208284031215610bfb57610bfa610ad6565b5b6000610c0984828501610b5a565b91505092915050565b6000819050919050565b610c2581610c12565b8114610c3057600080fd5b50565b600081359050610c4281610c1c565b92915050565b600060208284031215610c5e57610c5d610ad6565b5b6000610c6c84828501610c33565b91505092915050565b610c7e81610afb565b82525050565b610c8d81610b39565b82525050565b610c9c81610c12565b82525050565b7f4e487b7100000000000000000000000000000000000000000000000000000000600052602160045260246000fd5b60038110610ce257610ce1610ca2565b5b50565b6000819050610cf382610cd1565b919050565b6000610d0382610ce5565b9050919050565b610d1381610cf8565b82525050565b600060c082019050610d2e6000830189610c75565b610d3b6020830188610c84565b610d486040830187610c93565b610d556060830186610c93565b610d626080830185610c93565b610d6f60a0830184610d0a565b979650505050505050565b6000602082019050610d8f6000830184610c93565b92915050565b60028110610da257600080fd5b50565b600081359050610db481610d95565b92915050565b60008060408385031215610dd157610dd0610ad6565b5b6000610ddf85828601610b5a565b9250506020610df085828601610da5565b9150509250929050565b600060208284031215610e1057610e0f610ad6565b5b6000610e1e84828501610b24565b91505092915050565b6000819050919050565b6000610e4c610e47610e4284610adb565b610e27565b610adb565b9050919050565b6000610e5e82610e31565b9050919050565b6000610e7082610e53565b9050919050565b610e8081610e65565b82525050565b6000602082019050610e9b6000830184610e77565b92915050565b600082825260208201905092915050565b7f6e6f7420656e6f7567682073686172657320746f206372656174652070726f7060008201527f6f73616c00000000000000000000000000000000000000000000000000000000602082015250565b6000610f0e602483610ea1565b9150610f1982610eb2565b604082019050919050565b60006020820190508181036000830152610f3d81610f01565b9050919050565b7f70726f706f73616c20616c726561647920657869737400000000000000000000600082015250565b6000610f7a601683610ea1565b9150610f8582610f44565b602082019050919050565b60006020820190508181036000830152610fa981610f6d565b9050919050565b7f6e6f7420656e6f75676820736861726573000000000000000000000000000000600082015250565b6000610fe6601183610ea1565b9150610ff182610fb0565b602082019050919050565b6000602082019050818103600083015261101581610fd9565b9050919050565b7f4e487b7100000000000000000000000000000000000000000000000000000000600052601160045260246000fd5b600061105682610c12565b915061106183610c12565b9250828210156110745761107361101c565b5b828203905092915050565b60006040820190506110946000830185610c75565b6110a16020830184610c93565b9392505050565b6110b181610baf565b81146110bc57600080fd5b50565b6000815190506110ce816110a8565b92915050565b6000602082840312156110ea576110e9610ad6565b5b60006110f8848285016110bf565b91505092915050565b600061110c82610c12565b915061111783610c12565b9250827fffffffffffffffffffffffffffffffffffffffffffffffffffffffffffffffff0382111561114c5761114b61101c565b5b828201905092915050565b600060608201905061116c6000830186610c75565b6111796020830185610c75565b6111866040830184610c93565b949350505050565b7f616c726561647920766f74656400000000000000000000000000000000000000600082015250565b60006111c4600d83610ea1565b91506111cf8261118e565b602082019050919050565b600060208201905081810360008301526111f3816111b7565b9050919050565b7f70726f706f73616c20646f6573206e6f74206578697374000000000000000000600082015250565b6000611230601783610ea1565b915061123b826111fa565b602082019050919050565b6000602082019050818103600083015261125f81611223565b9050919050565b7f766f74696e6720706572696f64206973206f7665720000000000000000000000600082015250565b600061129c601583610ea1565b91506112a782611266565b602082019050919050565b600060208201905081810360008301526112cb8161128f565b9050919050565b60006112dd82610c12565b91506112e883610c12565b9250817fffffffffffffffffffffffffffffffffffffffffffffffffffffffffffffffff04831182151516156113215761132061101c565b5b828202905092915050565b7f4e487b7100000000000000000000000000000000000000000000000000000000600052601260045260246000fd5b600061136682610c12565b915061137183610c12565b9250826113815761138061132c565b5b82820490509291505056fea2646970667358221220dda5b7ab7343a389cef6e5b5e3d545ac6fe11144adc3bf11fe73b7a0d7a2f88964736f6c63430008080033",
  "immutableReferences": {},
  "source": "pragma solidity 0.8.8;\r\n\r\nimport '@openzeppelin/contracts/token/ERC20/IERC20.sol';\r\n\r\ncontract DAO {\r\n    enum Side{ Yes, No }\r\n    enum Status{ Undecided, Approved, Rejected }\r\n    struct Proposal {\r\n        address author;\r\n        bytes32 hash;\r\n        uint createdAt;\r\n        uint votedYes;\r\n        uint votedNo;\r\n        Status status;\r\n    }\r\n\r\n    mapping(bytes32 => Proposal) public proposals;\r\n    mapping(address => mapping(bytes32 => bool)) public votes;\r\n    mapping(address => uint) public shares;\r\n    uint public totalShares;\r\n    IERC20 public token;\r\n    uint constant CREATE_PROPOSAL_MIN_SHARE = 1000 * 10 ** 18;\r\n    uint constant VOTING_PERIOD = 7 days;\r\n\r\n    constructor(address _token){\r\n        token = IERC20(_token);\r\n    }\r\n\r\n    function deposit(uint amount) external {\r\n        shares[msg.sender] += amount;\r\n        totalShares += amount;\r\n        token.transferFrom(msg.sender, address(this), amount);\r\n    }\r\n\r\n    function withdraw(uint amount) external {\r\n        require(shares[msg.sender] >= amount, 'not enough shares');\r\n        shares[msg.sender] -= amount;\r\n        totalShares -= amount;\r\n        token.transfer(msg.sender, amount);\r\n    }\r\n\r\n    function createProposal(bytes32 proposalHash) external {\r\n        require(\r\n            shares[msg.sender] > CREATE_PROPOSAL_MIN_SHARE,\r\n            'not enough shares to create proposal'\r\n        );\r\n        require(proposals[proposalHash].hash == bytes32(0), 'proposal already exist');\r\n\r\n        proposals[proposalHash] = Proposal(\r\n            msg.sender,\r\n            proposalHash,\r\n            block.timestamp,\r\n            0,\r\n            0,\r\n            Status.Undecided\r\n        );\r\n    }\r\n\r\n    function vote(bytes32 proposalHash, Side side) external {\r\n        Proposal storage proposal = proposals[proposalHash];\r\n        require(votes[msg.sender][proposalHash] == false, 'already voted');\r\n        require(proposals[proposalHash].hash != bytes32(0), 'proposal does not exist');\r\n        require(block.timestamp <= proposal.createdAt + VOTING_PERIOD, 'voting period is over');\r\n        \r\n        votes[msg.sender][proposalHash] = true;\r\n        if(side == Side.Yes){\r\n            proposal.votedYes += shares[msg.sender];\r\n            if(proposal.votedYes * 100 / totalShares > 50){\r\n                proposal.status = Status.Approved;\r\n            }\r\n        } else {\r\n            proposal.votedNo += shares[msg.sender];\r\n            if(proposal.votedNo * 100 / totalShares > 50){\r\n                proposal.status = Status.Rejected;\r\n            }\r\n        }\r\n    }\r\n\r\n\r\n}",
  "sourcePath": "E:\\dishonored 2\\Blockchain\\Project\\blockchain\\Dao\\contracts\\DAO.sol",
  "compiler": {
    "name": "solc",
    "version": "0.8.8+commit.dddeac2f.Emscripten.clang"
  },
  "schemaVersion": "3.4.4",
  "updatedAt": "2022-06-19T16:28:33.520Z",
  "devdoc": {
    "kind": "dev",
    "methods": {},
    "version": 1
  },
  "userdoc": {
    "kind": "user",
    "methods": {},
    "version": 1
  }
}